{
  "_format": "hh-sol-artifact-1",
  "contractName": "EventManagement",
  "sourceName": "contracts/EventManagement.sol",
  "abi": [
    {
      "anonymous": false,
      "inputs": [
        {
          "indexed": true,
          "internalType": "uint256",
          "name": "eventId",
          "type": "uint256"
        },
        {
          "indexed": true,
          "internalType": "address",
          "name": "buyer",
          "type": "address"
        },
        {
          "indexed": false,
          "internalType": "uint256",
          "name": "price",
          "type": "uint256"
        }
      ],
      "name": "TicketPurchased",
      "type": "event"
    },
    {
      "inputs": [
        {
          "internalType": "string",
          "name": "_name",
          "type": "string"
        },
        {
          "internalType": "uint256",
          "name": "_date",
          "type": "uint256"
        },
        {
          "internalType": "uint256",
          "name": "_price",
          "type": "uint256"
        },
        {
          "internalType": "uint256",
          "name": "_ticketCount",
          "type": "uint256"
        }
      ],
      "name": "createEvent",
      "outputs": [],
      "stateMutability": "nonpayable",
      "type": "function"
    },
    {
      "inputs": [
        {
          "internalType": "uint256",
          "name": "",
          "type": "uint256"
        }
      ],
      "name": "events",
      "outputs": [
        {
          "internalType": "string",
          "name": "name",
          "type": "string"
        },
        {
          "internalType": "uint256",
          "name": "date",
          "type": "uint256"
        },
        {
          "internalType": "uint256",
          "name": "price",
          "type": "uint256"
        },
        {
          "internalType": "uint256",
          "name": "ticketCount",
          "type": "uint256"
        },
        {
          "internalType": "uint256",
          "name": "ticketsRemaining",
          "type": "uint256"
        },
        {
          "internalType": "address",
          "name": "organizer",
          "type": "address"
        }
      ],
      "stateMutability": "view",
      "type": "function"
    },
    {
      "inputs": [
        {
          "internalType": "uint256",
          "name": "_eventId",
          "type": "uint256"
        }
      ],
      "name": "getEvent",
      "outputs": [
        {
          "internalType": "string",
          "name": "",
          "type": "string"
        },
        {
          "internalType": "uint256",
          "name": "",
          "type": "uint256"
        },
        {
          "internalType": "uint256",
          "name": "",
          "type": "uint256"
        },
        {
          "internalType": "uint256",
          "name": "",
          "type": "uint256"
        }
      ],
      "stateMutability": "view",
      "type": "function"
    },
    {
      "inputs": [],
      "name": "getUserTickets",
      "outputs": [
        {
          "components": [
            {
              "internalType": "uint256",
              "name": "ticketId",
              "type": "uint256"
            },
            {
              "internalType": "uint256",
              "name": "eventId",
              "type": "uint256"
            },
            {
              "internalType": "string",
              "name": "uniqueHash",
              "type": "string"
            },
            {
              "internalType": "bool",
              "name": "isValid",
              "type": "bool"
            }
          ],
          "internalType": "struct EventManagement.Ticket[]",
          "name": "",
          "type": "tuple[]"
        }
      ],
      "stateMutability": "view",
      "type": "function"
    },
    {
      "inputs": [],
      "name": "nextEventId",
      "outputs": [
        {
          "internalType": "uint256",
          "name": "",
          "type": "uint256"
        }
      ],
      "stateMutability": "view",
      "type": "function"
    },
    {
      "inputs": [],
      "name": "nextTicketId",
      "outputs": [
        {
          "internalType": "uint256",
          "name": "",
          "type": "uint256"
        }
      ],
      "stateMutability": "view",
      "type": "function"
    },
    {
      "inputs": [
        {
          "internalType": "uint256",
          "name": "_eventId",
          "type": "uint256"
        }
      ],
      "name": "purchaseTicket",
      "outputs": [],
      "stateMutability": "payable",
      "type": "function"
    },
    {
      "inputs": [
        {
          "internalType": "address",
          "name": "",
          "type": "address"
        },
        {
          "internalType": "uint256",
          "name": "",
          "type": "uint256"
        }
      ],
      "name": "userTickets",
      "outputs": [
        {
          "internalType": "uint256",
          "name": "ticketId",
          "type": "uint256"
        },
        {
          "internalType": "uint256",
          "name": "eventId",
          "type": "uint256"
        },
        {
          "internalType": "string",
          "name": "uniqueHash",
          "type": "string"
        },
        {
          "internalType": "bool",
          "name": "isValid",
          "type": "bool"
        }
      ],
      "stateMutability": "view",
      "type": "function"
    }
  ],
  "bytecode": "0x60806040526001600255600160035534801561001a57600080fd5b506117908061002a6000396000f3fe60806040526004361061007b5760003560e01c80636d1884e01161004e5780636d1884e0146101415780639f9d903a14610181578063b948348c146101ac578063cf260baf146101c85761007b565b80630374ab0b14610080578063093c69ae146100a95780630b791430146100d45780636031a52f14610116575b600080fd5b34801561008c57600080fd5b506100a760048036038101906100a29190610c82565b610208565b005b3480156100b557600080fd5b506100be610305565b6040516100cb9190610ed3565b60405180910390f35b3480156100e057600080fd5b506100fb60048036038101906100f69190610ef5565b610462565b60405161010d96959493929190610fbc565b60405180910390f35b34801561012257600080fd5b5061012b610546565b6040516101389190611024565b60405180910390f35b34801561014d57600080fd5b5061016860048036038101906101639190610ef5565b61054c565b604051610178949392919061103f565b60405180910390f35b34801561018d57600080fd5b50610196610617565b6040516101a39190611024565b60405180910390f35b6101c660048036038101906101c19190610ef5565b61061d565b005b3480156101d457600080fd5b506101ef60048036038101906101ea91906110b7565b6109e1565b6040516101ff9493929190611106565b60405180910390f35b6040518060c001604052808581526020018481526020018381526020018281526020018281526020013373ffffffffffffffffffffffffffffffffffffffff1681525060008060025481526020019081526020016000206000820151816000019081610274919061135e565b506020820151816001015560408201518160020155606082015181600301556080820151816004015560a08201518160050160006101000a81548173ffffffffffffffffffffffffffffffffffffffff021916908373ffffffffffffffffffffffffffffffffffffffff160217905550905050600260008154809291906102fa9061145f565b919050555050505050565b6060600160003373ffffffffffffffffffffffffffffffffffffffff1673ffffffffffffffffffffffffffffffffffffffff168152602001908152602001600020805480602002602001604051908101604052809291908181526020016000905b82821015610459578382906000526020600020906004020160405180608001604052908160008201548152602001600182015481526020016002820180546103ad90611181565b80601f01602080910402602001604051908101604052809291908181526020018280546103d990611181565b80156104265780601f106103fb57610100808354040283529160200191610426565b820191906000526020600020905b81548152906001019060200180831161040957829003601f168201915b505050505081526020016003820160009054906101000a900460ff16151515158152505081526020019060010190610366565b50505050905090565b600060205280600052604060002060009150905080600001805461048590611181565b80601f01602080910402602001604051908101604052809291908181526020018280546104b190611181565b80156104fe5780601f106104d3576101008083540402835291602001916104fe565b820191906000526020600020905b8154815290600101906020018083116104e157829003601f168201915b5050505050908060010154908060020154908060030154908060040154908060050160009054906101000a900473ffffffffffffffffffffffffffffffffffffffff16905086565b60035481565b606060008060008060008087815260200190815260200160002090508060000181600101548260020154836004015483805461058790611181565b80601f01602080910402602001604051908101604052809291908181526020018280546105b390611181565b80156106005780601f106105d557610100808354040283529160200191610600565b820191906000526020600020905b8154815290600101906020018083116105e357829003601f168201915b505050505093509450945094509450509193509193565b60025481565b60008060008381526020019081526020016000209050600073ffffffffffffffffffffffffffffffffffffffff168160050160009054906101000a900473ffffffffffffffffffffffffffffffffffffffff1673ffffffffffffffffffffffffffffffffffffffff16036106c6576040517f08c379a00000000000000000000000000000000000000000000000000000000081526004016106bd906114f3565b60405180910390fd5b8060010154421061070c576040517f08c379a00000000000000000000000000000000000000000000000000000000081526004016107039061155f565b60405180910390fd5b6000816004015411610753576040517f08c379a000000000000000000000000000000000000000000000000000000000815260040161074a906115cb565b60405180910390fd5b806002015434101561079a576040517f08c379a000000000000000000000000000000000000000000000000000000000815260040161079190611637565b60405180910390fd5b60006107a93384600354610ac3565b9050600160003373ffffffffffffffffffffffffffffffffffffffff1673ffffffffffffffffffffffffffffffffffffffff1681526020019081526020016000206040518060800160405280600354815260200185815260200183815260200160011515815250908060018154018082558091505060019003906000526020600020906004020160009091909190915060008201518160000155602082015181600101556040820151816002019081610862919061135e565b5060608201518160030160006101000a81548160ff021916908315150217905550505081600401600081548092919061089a90611657565b9190505550600360008154809291906108b29061145f565b91905055508160050160009054906101000a900473ffffffffffffffffffffffffffffffffffffffff1673ffffffffffffffffffffffffffffffffffffffff166108fc83600201549081150290604051600060405180830381858888f19350505050158015610925573d6000803e3d6000fd5b508160020154341115610989573373ffffffffffffffffffffffffffffffffffffffff166108fc83600201543461095c9190611680565b9081150290604051600060405180830381858888f19350505050158015610987573d6000803e3d6000fd5b505b3373ffffffffffffffffffffffffffffffffffffffff16837fdbaaf4c87ce30816c961a81d110622a3227ede77953d4383d514ff88ab2e0fd384600201546040516109d49190611024565b60405180910390a3505050565b600160205281600052604060002081815481106109fd57600080fd5b906000526020600020906004020160009150915050806000015490806001015490806002018054610a2d90611181565b80601f0160208091040260200160405190810160405280929190818152602001828054610a5990611181565b8015610aa65780601f10610a7b57610100808354040283529160200191610aa6565b820191906000526020600020905b815481529060010190602001808311610a8957829003601f168201915b5050505050908060030160009054906101000a900460ff16905084565b6060838383604051602001610ada9392919061171d565b60405160208183030381529060405290509392505050565b6000604051905090565b600080fd5b600080fd5b600080fd5b600080fd5b6000601f19601f8301169050919050565b7f4e487b7100000000000000000000000000000000000000000000000000000000600052604160045260246000fd5b610b5982610b10565b810181811067ffffffffffffffff82111715610b7857610b77610b21565b5b80604052505050565b6000610b8b610af2565b9050610b978282610b50565b919050565b600067ffffffffffffffff821115610bb757610bb6610b21565b5b610bc082610b10565b9050602081019050919050565b82818337600083830152505050565b6000610bef610bea84610b9c565b610b81565b905082815260208101848484011115610c0b57610c0a610b0b565b5b610c16848285610bcd565b509392505050565b600082601f830112610c3357610c32610b06565b5b8135610c43848260208601610bdc565b91505092915050565b6000819050919050565b610c5f81610c4c565b8114610c6a57600080fd5b50565b600081359050610c7c81610c56565b92915050565b60008060008060808587031215610c9c57610c9b610afc565b5b600085013567ffffffffffffffff811115610cba57610cb9610b01565b5b610cc687828801610c1e565b9450506020610cd787828801610c6d565b9350506040610ce887828801610c6d565b9250506060610cf987828801610c6d565b91505092959194509250565b600081519050919050565b600082825260208201905092915050565b6000819050602082019050919050565b610d3a81610c4c565b82525050565b600081519050919050565b600082825260208201905092915050565b60005b83811015610d7a578082015181840152602081019050610d5f565b60008484015250505050565b6000610d9182610d40565b610d9b8185610d4b565b9350610dab818560208601610d5c565b610db481610b10565b840191505092915050565b60008115159050919050565b610dd481610dbf565b82525050565b6000608083016000830151610df26000860182610d31565b506020830151610e056020860182610d31565b5060408301518482036040860152610e1d8282610d86565b9150506060830151610e326060860182610dcb565b508091505092915050565b6000610e498383610dda565b905092915050565b6000602082019050919050565b6000610e6982610d05565b610e738185610d10565b935083602082028501610e8585610d21565b8060005b85811015610ec15784840389528151610ea28582610e3d565b9450610ead83610e51565b925060208a01995050600181019050610e89565b50829750879550505050505092915050565b60006020820190508181036000830152610eed8184610e5e565b905092915050565b600060208284031215610f0b57610f0a610afc565b5b6000610f1984828501610c6d565b91505092915050565b600082825260208201905092915050565b6000610f3e82610d40565b610f488185610f22565b9350610f58818560208601610d5c565b610f6181610b10565b840191505092915050565b610f7581610c4c565b82525050565b600073ffffffffffffffffffffffffffffffffffffffff82169050919050565b6000610fa682610f7b565b9050919050565b610fb681610f9b565b82525050565b600060c0820190508181036000830152610fd68189610f33565b9050610fe56020830188610f6c565b610ff26040830187610f6c565b610fff6060830186610f6c565b61100c6080830185610f6c565b61101960a0830184610fad565b979650505050505050565b60006020820190506110396000830184610f6c565b92915050565b600060808201905081810360008301526110598187610f33565b90506110686020830186610f6c565b6110756040830185610f6c565b6110826060830184610f6c565b95945050505050565b61109481610f9b565b811461109f57600080fd5b50565b6000813590506110b18161108b565b92915050565b600080604083850312156110ce576110cd610afc565b5b60006110dc858286016110a2565b92505060206110ed85828601610c6d565b9150509250929050565b61110081610dbf565b82525050565b600060808201905061111b6000830187610f6c565b6111286020830186610f6c565b818103604083015261113a8185610f33565b905061114960608301846110f7565b95945050505050565b7f4e487b7100000000000000000000000000000000000000000000000000000000600052602260045260246000fd5b6000600282049050600182168061119957607f821691505b6020821081036111ac576111ab611152565b5b50919050565b60008190508160005260206000209050919050565b60006020601f8301049050919050565b600082821b905092915050565b6000600883026112147fffffffffffffffffffffffffffffffffffffffffffffffffffffffffffffffff826111d7565b61121e86836111d7565b95508019841693508086168417925050509392505050565b6000819050919050565b600061125b61125661125184610c4c565b611236565b610c4c565b9050919050565b6000819050919050565b61127583611240565b61128961128182611262565b8484546111e4565b825550505050565b600090565b61129e611291565b6112a981848461126c565b505050565b5b818110156112cd576112c2600082611296565b6001810190506112af565b5050565b601f821115611312576112e3816111b2565b6112ec846111c7565b810160208510156112fb578190505b61130f611307856111c7565b8301826112ae565b50505b505050565b600082821c905092915050565b600061133560001984600802611317565b1980831691505092915050565b600061134e8383611324565b9150826002028217905092915050565b61136782610d40565b67ffffffffffffffff8111156113805761137f610b21565b5b61138a8254611181565b6113958282856112d1565b600060209050601f8311600181146113c857600084156113b6578287015190505b6113c08582611342565b865550611428565b601f1984166113d6866111b2565b60005b828110156113fe578489015182556001820191506020850194506020810190506113d9565b8683101561141b5784890151611417601f891682611324565b8355505b6001600288020188555050505b505050505050565b7f4e487b7100000000000000000000000000000000000000000000000000000000600052601160045260246000fd5b600061146a82610c4c565b91507fffffffffffffffffffffffffffffffffffffffffffffffffffffffffffffffff820361149c5761149b611430565b5b600182019050919050565b7f4576656e7420646f6573206e6f74206578697374000000000000000000000000600082015250565b60006114dd601483610f22565b91506114e8826114a7565b602082019050919050565b6000602082019050818103600083015261150c816114d0565b9050919050565b7f4576656e74206861732065787069726564000000000000000000000000000000600082015250565b6000611549601183610f22565b915061155482611513565b602082019050919050565b600060208201905081810360008301526115788161153c565b9050919050565b7f4e6f207469636b65747320617661696c61626c65000000000000000000000000600082015250565b60006115b5601483610f22565b91506115c08261157f565b602082019050919050565b600060208201905081810360008301526115e4816115a8565b9050919050565b7f496e73756666696369656e74207061796d656e74000000000000000000000000600082015250565b6000611621601483610f22565b915061162c826115eb565b602082019050919050565b6000602082019050818103600083015261165081611614565b9050919050565b600061166282610c4c565b91506000820361167557611674611430565b5b600182039050919050565b600061168b82610c4c565b915061169683610c4c565b92508282039050818111156116ae576116ad611430565b5b92915050565b60008160601b9050919050565b60006116cc826116b4565b9050919050565b60006116de826116c1565b9050919050565b6116f66116f182610f9b565b6116d3565b82525050565b6000819050919050565b61171761171282610c4c565b6116fc565b82525050565b600061172982866116e5565b6014820191506117398285611706565b6020820191506117498284611706565b60208201915081905094935050505056fea26469706673582212200c8c1e34365f9af3ea576d25f39f2b838823e2b5dc3a79a8e2ddc5abb309983864736f6c63430008130033",
  "linkReferences": {},
  "deployedLinkReferences": {}
}